:100000000C94CA010C9490240C9402020C940202E9
:100010000C9402020C9402020C9402020C94020250
:100020000C9402020C9402020C944D2A0C94212B85
:100030000C94FC220C9402020C9402020C94020216
:100040000C9402020C9402020C9402020C94020220
:100050000C9402020C949F230C9402020C94020252
:100060000C9402020C9402020C9402020C94020200
:100070000C9402020C9402020C9402020C940202F0
:100080000C9402020C9402020C9402020C940202E0
:100090000C9402020C9402020C9402020C940202D0
:1000A0000C9402020C9402020C9402022900140027
:1000B0001A000800150017002B00040016000700A6
:1000C00009000A00E1001D001B00060019000500E0
:1000D000E200E30052005100E0002C0050004F000D
:1000E00052005100220023001E001F0020002100AA
:1000F000220023002A00130012000C0018001C002C
:10010000280031000F0038000D000B00E10037001F
:1001100036023800100011004C00E6002C002C00C4
:100120002C00E00023002200210020001F000E0010
:100130002D002E00270026002500240000000000CE
:10014000000000002A2B2800000000000000000032
:100150000000000000000029000000002C1E3420D8
:10016000212224342627252E362D3738271E1F20FE
:100170002122232425263333362E37381F04050643
:100180000708090A0B0C0D0E0F1011121314151687
:100190001718191A1B1C1D2F3130232D3504050685
:1001A0000708090A0B0C0D0E0F1011121314151667
:1001B0001718191A1B1C1D2F3130354C0000000078
:1001C000000000000000000000000000000000002F
:1001D000000000000000000000000000000000001F
:1001E0007E0F00D4FFFFFFC700000078100344001B
:1001F0004F0035003200142059004B000000060368
:1002000059004B0000000403090409025B000301CC
:1002100000A0FA09040000010301010009211101F5
:1002200000012244000705810308000109040100C0
:10023000020300000009211101000122220007052C
:1002400082032000010705030320000109040200C6
:10025000010300000009211101000122B600070579
:1002600084032000011201000200000008A6FE54D1
:100270000A0100010200010660FF0961A101096293
:10028000150026FF009520750881020963150026D8
:10029000FF00952075089102C005010902A10185A2
:1002A000020901A100050919012908150025019578
:1002B00008750181020501093009311581257F95F5
:1002C000027508810609381581257F950175088119
:1002D00006050C0A38021581257F950175088106EF
:1002E000C0C005010980A101850319012AB70015C5
:1002F0000126B700950175108100C0050C0901A108
:1003000001850419012AA002150126A00295017594
:10031000108100C005010906A1018506050719E045
:1003200029E71500250195087501810205071900C7
:1003300029EF1500250195F07501810205081901C5
:100340002905950575019102950175039101C00577
:10035000010906A101050719E029E7150025019506
:1003600008750181029501750881010507190029A9
:10037000FF150026FF009506750881000508190184
:100380002905150025019505750191029501750353
:100390009101C00011241FBECFEFDAE0DEBFCDBF58
:1003A00004B603FE18C08091300390913103A091F0
:1003B0003203B09133038730904BA740B04B59F4D0
:1003C00010923003109231031092320310923303D3
:1003D000E0E0F8E3099511E0A0E0B1E0E4E7FCE536
:1003E00002C005900D92AA3CB107D9F723E0AAEC10
:1003F000B1E001C01D92A033B207E1F70E9453148F
:100400000C94A72D0C940000811112C06C3080F464
:10041000463070F4E42FF0E086E0689FE00DF11DB7
:100420001124EE0FFF1FE455FF4F8591949108951D
:1004300081E090E0089581E008950E941B020895F4
:1004400081E008950E941B0208950E9422020895EF
:1004500008950E9428020895A6E0B0E0E2E3F2E0E9
:100460000C94032D49835A839E833091D101898155
:100470009A8131111AC03E81332399F0222389F0E9
:100480000E94D207182F682F89819A810E94AE0797
:1004900069817A81812F0E940B0F2696E3E00C94EC
:1004A0001F2D0E94C007182FF3CF0E94D207698129
:1004B0007A81F1CFFC01262F4081518162817381C5
:1004C000848195810E942C020895CF93DF93EC01E3
:1004D00061E00E945A02BE010E941D02DF91CF918D
:1004E0000895CF93DF93EC0160E00E945A02BE01B1
:1004F0000E942902DF91CF91089581E008950E9422
:100500007D020895CF93C82F0E94AA068C2F0E94C7
:100510007F022FEF84E39CE0215080409040E1F780
:1005200000C00000CF91089581E00E9482020E94E5
:10053000C323089580E00E9482020E94E723089569
:100540000F931F93CF93DF938C0161E00E945A02B7
:10055000EC01B8010E942620811106C080E0DF91E5
:10056000CF911F910F910895B801CE010E942502ED
:100570008823A1F3B801CE010E94331F882371F3B1
:10058000B801CE010E944E1A882341F3B801CE0172
:100590000E94241A882311F3B801CE010E94771F0C
:1005A0008823E1F2F8018581882361F0C330FCE7FC
:1005B000DF07E9F058F4C115ECE7DE07A9F0C13018
:1005C000DC47B9F0C8010E942002C9CFCB358CE7C7
:1005D000D807A9F0CC35ECE7DE0771F0CA35DC4767
:1005E00089F70E943B0CEECF0E949402B7CF0E9485
:1005F000430C0E949A02B2CF0E94310CE3CF0E94BA
:100600003F0CE0CF0E94D9220E94290308950E9446
:100610002D030E94DE220895089581E00895089533
:10062000CF93DF93D82F0E940D03C82F882319F092
:100630008D2F0E940F038C2FDF91CF910895089585
:10064000CF93C82F0E940C038C2F0E941003CF91D0
:10065000089580E00E94200308950E9412210E94C4
:1006600020030895CF930E941221C82F8091CC01BE
:100670008C1779F0C093CC010E9468236093CD0160
:100680007093CE018093CF019093D0018C2F0E9464
:100690002003CF910895ADE0B0E0E1E5F3E00C94E4
:1006A000042D488759876A877B878C879D8791119E
:1006B0000E94410B1F8286E0FE013896DE011196F2
:1006C00001900D928A95E1F78D8181110DC02981EC
:1006D0003A814B815C816D817E818F810E948B0A82
:1006E0002D96E2E00C94202DCE0101960E94650229
:1006F0008111EDCFF5CFFC012481213021F48081DF
:1007000091810E94FF0708950F931F93CF93DF936A
:10071000C82FD62F662341F10E94AF1B0C2F10E08B
:10072000C801815D9109089710F00E94941CC15D79
:10073000C330A8F4015D110981E090E002C0880F88
:10074000991F0A95E2F72091FD023091FE02DD2308
:1007500071F0822B932B9093FE028093FD02DF9128
:10076000CF911F910F9108950E941B1CD7CF8095A8
:10077000909582239323EFCFCF93C82F8823C1F086
:100780008CEF8C0F813AB0F48C2F0E94B11781113D
:100790000FC08C2F0E94B921882329F08C2F0E9432
:1007A00059220E94D50B8C2F0E9442220E94D50B09
:1007B000CF91089580E28C0F883048F4C77081E0B3
:1007C00001C0880FCA95EAF70E94240BEFCFEBE532
:1007D000EC0FE33040F4F0E0EF58FE4F808190E002
:1007E0000E944D21E5CFE8E5EC0FEB3150F4F0E04D
:1007F000EE0FFF1FE55CFE4F808191810E94722108
:10080000D7CF83E38C0F833198F661E08C2F0E9461
:100810008403CECF882381F19CEF980F913A28F47E
:100820000E9459220E94D50B089590E2980F9830AB
:1008300050F4877091E001C0990F8A95EAF7892FEB
:100840000E942A0BEFCF9BE5980F933028F490E09D
:1008500080E00E944D21089598E5980F9B3128F47F
:1008600090E080E00E947221089593E3980F933105
:1008700018F460E00E94840308951F93CF93DF93E0
:10088000182FEB010E94BC03209739F4812F0E949E
:100890000A04DF91CF911F9108958FE99FE001979E
:1008A000F1F700C000002197EFCF70E060E08933DE
:1008B00011F460E570E00E943D040895882321F062
:1008C0000E94240B0E94D50B0895882321F00E94DA
:1008D0002A0B0E94D50B0895B0E0A0E0E2E7F4E017
:1008E0000C94FD2C6C01D62FC72FFC0115810681BD
:1008F00002950F700E941A0BE82E8823F9F0E12E62
:100900001123E1F08C2F807F803461F080E28D0F25
:10091000883008F18C2F807E803221F4D230D8F0DC
:100920000023C9F08091000382FF15C082E00E947D
:10093000050C0E941A0B91E0E82EE926BC2EB29419
:100940009FE0B922FBE0FB15B8F1EB2DF0E0E75595
:10095000F24D0C94E72CE12CF1CF0C2F0F70C07FDF
:1009600011F00295007F112399F0002359F080E2E5
:100970008D0F883010F0D11107C0802F0E94240BFA
:100980000E94D50B8D2F5AC0802F0E94340BF8CFB8
:100990008D2F0E940A04002379F080E28D0F8830A9
:1009A00010F0D11104C0802F0E942A0B03C0802FA9
:1009B0000E943A0B0E94D50BEB2DE850FF0B3497A9
:1009C00020F40E9412210E942003EE2089F00E9450
:1009D000160B80FD0DC0F60115820E94100B0E94BF
:1009E0002207C6010E9471060E94100B0E942E076A
:1009F000CDB7DEB7E9E00C94192D2C2F2F70F22E15
:100A0000C07FC03219F0F29480EFF822DD2341F06C
:100A1000D130D1F1112309F444C00023F1F0B2CF59
:100A20008091000382FD15C0112359F0FF2029F0A9
:100A30008F2D0E94240B0E94D50B80E00E94BC03E6
:100A4000BBCF80E00E940A04FF2009F4B5CF8F2DB0
:100A5000ABCF112369F0011104C08F2D0E945E04F9
:100A6000ABCF013009F0A8CF8F2D0E94580BA4CF37
:100A70000111A2CF8F2D0E9465048F2D0E94640B5F
:100A80008F2D0E94480B98CF112321F0063008F0DB
:100A900093CFE3CF053008F08FCF8F2D0E946504F0
:100AA0008BCF0023D1F3D93349F43FEF87EE93E0A6
:100AB000315080409040E1F700C000008D2F0E942F
:100AC0000A047ACF8C2F86958695837069F08130E1
:100AD00009F072CF8D2F9C2F9370111102C080E00E
:100AE00090E00E94722168CF8D2F9C2F937011117E
:100AF00002C080E090E00E944D215ECF612F8D2FDB
:100B00000E94840359CF8C2F837079F5111154CF33
:100B10004D2F429546954770440F440F8D2F8F708F
:100B2000042E01C0880F0A94EAF72D2F2071D4FFFC
:100B300007C02FE030E001C0220F4A95EAF7209568
:100B4000C695C695C370822BC23049F058F4C130A7
:100B500019F00E94FE0630CF0E94F8062DCF0E94A9
:100B600004072ACF0E94F50627CF8695112311F09E
:100B70008C2F8170882309F41FCF4D2F4295469505
:100B80004770440F440F8D2F8F70042E01C0880FC3
:100B90000A94EAF72D2F2071D4FF07C02FE030E030
:100BA00001C0220F4A95EAF72095C695C695C370F5
:100BB000822BC23049F058F4C13019F00E944D0721
:100BC000FBCE0E944707F8CE0E945307F5CE0E9445
:100BD0001007F2CECF70112329F08C2F0E9422072C
:100BE0008D2F3CCF8D2F0E9465048C2F0E942E07E5
:100BF000E3CED23F41F160F4D03FB9F0D13F81F074
:100C0000112309F446C00111BDCE8C2F8F711FC076
:100C1000D33F01F1D43FA1F78091000382FD24C0AE
:100C20008C2F8F71112311F312C0112341F0053065
:100C300008F0C2CE8C2F8F710E943B07BDCE0630CC
:100C400008F0BACEF7CF8C2F8F711111CFCF0E9441
:100C50002207B2CE112329F08C2F8F710E94190721
:100C6000ABCE0E941507A8CE112349F0CF718C2F6F
:100C70000E94220763E08C2F0E94E70B9DCE81E04B
:100C80000E94050C023008F497CE82E00E94050C09
:100C900093CE002359F0D93309F010CFEFEFF7EEE0
:100CA00023E0E150F0402040E1F706CF8C2F8F7118
:100CB0009DCF0F931F93CF93DF93EC0168817981D0
:100CC0008D810E940A088C010E9459070E94F40637
:100CD000B801CE010E946C04DF91CF911F910F915A
:100CE0000895CF93DF93EC018C81882399F0CE0196
:100CF0000E94A002811111C00E941A0B882351F09A
:100D00008D81882339F08091000382FF03C082E047
:100D10000E94050CDF91CF910895CE010E945906E3
:100D2000CE010E947102F6CF90E080E00E944D213A
:100D300090E080E00E9472210E94410B0E94D50B3E
:100D40000E94B01C0E94941C08950E9470220E9470
:100D5000940608950E94310B0E94A506089592956D
:100D60009F70963091F058F4925F9F70923058F4D3
:100D7000803F19F030F4883E30F481E008959A5FA6
:100D8000F4CF843FD1F380E00895883EB0F3813FF3
:100D9000D1F7F3CFFC012481222339F080819181A6
:100DA0000E94FF070E94AF06089580E00895A6E024
:100DB000B0E0EDEDF6E00C94042D2696E2E00C9404
:100DC000202DA7E0B0E0E7EEF6E00C94042D279686
:100DD000E2E00C94202D08950E94EB0608950E94F5
:100DE000EC068093EE01089508950E94EF060895A1
:100DF0009091EE01892B0E94EF0608959091EE01EB
:100E000089230E94EF0608959091EE0189270E94A0
:100E1000EF0608950E94EB0608950E940A070895C0
:100E20000E940D078093ED01089580E00E94100755
:100E3000089591E001C0990F8A95EAF7892F0E94E1
:100E40001007089521E030E001C0220F8A95EAF7EB
:100E50008091ED01822B0E941007089521E030E07F
:100E600001C0220F8A95EAF720958091ED01822337
:100E70000E941007089521E030E001C0220F8A95FA
:100E8000EAF78091ED0182270E9410070895909162
:100E9000ED01892B0E94100708959091ED0189239F
:100EA0000E94100708959091ED0189270E94100774
:100EB00008950895262F277091E001C0990F2A9573
:100EC000EAF723E0769567952A95E1F7FB01EE0FA7
:100ED000FF1FE60FF71FE40FF51F50E040E0682FFB
:100EE00070E08191DF0111979B01042E02C03695BD
:100EF00027950A94E2F7217021952827292328278E
:100F00002C934F5F5F4F4330510559F70895A82F39
:100F1000A77023E0969587952A95E1F7FC01EE0FDF
:100F2000FF1FE80FF91FE60FF71F50E040E080E0D9
:100F3000219130E00A2E02C0369527950A94E2F7F7
:100F400021703327042E01C0220F0A94EAF7822B66
:100F50004F5F5F4F4330510559F70895262F9C305E
:100F600070F4863060F4682F70E086E0989F600D22
:100F7000711D112442ED51E0822F0E945A070895FD
:100F8000292F9C3068F4863058F490E062ED71E0CF
:100F900036E0239F800D911D11240E94870708953C
:100FA00080E00895CF92DF92FF920F931F93CF932B
:100FB000DF936C010091ED018091EE01082BC3E0FD
:100FC000D0E010E0FC2EC8010C2E02C0959587954C
:100FD0000A94E2F780FD0CC02197A0F7F12C8F2D29
:100FE000DF91CF911F910F91FF90DF90CF900895E7
:100FF000B6018C2F0E94170F019771F3F0CFCF939A
:10100000DF93EC010E94D207BE010E94170FDF910F
:10101000CF9108951F93CF93DF93EB019091D1016E
:10102000992339F0CB010E94FF07DF91CF911F91E7
:101030000895882369F0CB010E94D207182F682FEA
:10104000CE010E94AE07BE01812F0E94170FEDCF87
:10105000CB010E94C007182FF6CFE1E0F0E0DF01DE
:1010600002C0AA0FBB1F6A95E2F7BD01DF0102C0F3
:10107000AA0FBB1F4A95E2F76A2B01C0EE0F2A9513
:10108000EAF7962F9823961302C08E2B0895E095C9
:101090008E230895242F462F682F8091ED010E9402
:1010A0002D080E94100708951F93CF93DF93C091DE
:1010B000EF0117E08091F0018C1304C0DF91CF9114
:1010C0001F910895D0E01C9FF0011D9FF00D112489
:1010D000EF50FE4F208131814281538164817581BF
:1010E00086810E94E1062196C770E4CF20912902F3
:1010F00030912A0240912B0250912C0260912D02D6
:1011000070912E0280912F020E94E1060895CF93E4
:10111000DF9380912F02807F09F04DC080912E02D5
:10112000882309F448C0E091EF015091F001C0918B
:101130002A02D091290260912B0270912C0247E083
:101140005E17C9F18E2F90E0E49FF0011124EF505B
:10115000FE4F2481222391F1489FF001499FF00D19
:101160001124DF01AF50BE4F11962C9111972C1313
:1011700025C02C912D1322C015962C911597211165
:101180001DC012962D913C91261B370B283C310532
:10119000A8F480912F028F70806180932F02E95014
:1011A000FE4F80818F708061808389E292E00E948F
:1011B00071060E945408DF91CF910895FC01319689
:1011C000E770BECF482F2091EF019091F00157E0DA
:1011D000291302C080E0089530E0529FF001539F30
:1011E000F00D1124EF50FE4F8181681306C08081FD
:1011F000481303C085818111EECF2F5F3F4F2770C9
:10120000E7CFA4E1B0E0E7E0F9E00C94FA2C8C0120
:1012100086E0F801DE011F9601900D928A95E1F7B4
:10122000F8018481E58099E2A92E92E0B92E90918F
:101230002D0291111FC08823D1F0EE20A9F0C80122
:101240000E94CA06F82E882379F087E0F801D501BC
:1012500001900D928A95E1F7C5010E947B030E94DF
:1012600087080E9476085FC0C8010E947106FF24AB
:10127000F39459C0C080D18082809380F0902E0278
:1012800020912B0230912C02A401421B530BFF2012
:1012900009F4F9C0483C510508F0A7C0882309F4B7
:1012A00042C090912A0280912F02282F207F09F0BE
:1012B0005CC09D1116C090912902C91212C0E110A4
:1012C0004EC08F70806180932F020E94760889E261
:1012D00092E00E94710680912F02F8018683F12C22
:1012E00022C0E1103CC06D2D8C2D0E94E2086D2DB6
:1012F0008C2D0E94E208E82E8111F1CFCF86D88A8A
:101300008F8598890E94FF07292F22952F702430FE
:1013100078F49F702230A8F09923B9F0F8019681F3
:10132000907F99F4FE2C8F2D6496ECE00C94162D92
:101330002A5F2F70223068F0C8010E947106EF2CDE
:10134000F1CF992311F0882369F3805E883050F340
:10135000F3CF803F38F3815F833070F7E3CF809124
:101360002F02816080932F02BACF9D1113C09091FC
:101370002902C9120FC0E1100DC08683C8010E9466
:10138000710687E0F801A9E2B2E001900D928A951A
:10139000E1F767CFC8010E94CA06882309F464CF29
:1013A000EE2009F461CF80912F02803288F02091E5
:1013B000290230912A02398728879B868A86909154
:1013C0002D029C871D868E87CE0108960E9471068D
:1013D00087E0F801A9E2B2E001900D928A95E1F769
:1013E0000E9487080E94760842CF90912F02292FF1
:1013F000207FA1F4682D9A8A898AA6017A899E2D78
:101400000E94D70689E292E00E94710687E0F5010A
:1014100011928A95E9F70E94760861CF882309F432
:1014200082CF80912A028D1110C080912902C812AA
:101430000CC0E1100AC09683C8010E94710687E0C3
:10144000F50111928A95E9F76ECFC8010E94CA068C
:10145000882309F409CFEE2009F406CF80912F02EA
:10146000803208F4B5CF2091290230912A023A83C4
:1014700029839C828B8290912D029D831E828F8373
:10148000CE010196A3CF483C5105B8F5882309F455
:10149000EECEFE2CEE2009F4E7CE80912A028D11CB
:1014A0001EC080912902C8121AC080912F0280FDAF
:1014B0000DC0982F907F51F08683903F09F45ECF46
:1014C000982F907F905F8F70892B57CF87E0F8011E
:1014D000A9E2B2E001900D928A95E1F724CFC8010C
:1014E0000E94CA06811174CF80912F02816080937F
:1014F0002F02C8010E94710616CF682D9A8A898A28
:10150000A6017A899E2D0E94D70687E0F5011192E7
:101510008A95E9F7A6CEAEE0B0E0E1E9FAE00C94F6
:10152000032D288739874A875B876C877D878E875D
:10153000CE0108960E9401098823B1F06C856623CC
:1015400041F0288539854A855B857D858E850E9499
:10155000E10617E08091EF019091F00189133DC001
:101560002E96E3E00C941F2D87E0FE013896DE01F5
:10157000119601900D928A95E1F78C85882349F3A5
:101580002091F00130E0C9010196877099274091C0
:10159000EF014817190699F097E0929FD001939FA9
:1015A000B00D1124AF50BE4FFE01319601900D9247
:1015B0009A95E1F78093F0010E945408CACF0E94E7
:1015C000AA061092F0011092EF0187E0E9E2F2E042
:1015D000DF011D928A95E9F7BCCF819FC0011124DC
:1015E0008F509E4F0E940109882309F4B9CFE091E2
:1015F000EF011E9FF0011124EF50FE4F2081318139
:10160000428153816481758186810E94E1068091C7
:10161000EF0190E00196877099278093EF019ACFB0
:1016200080915802869586958695089580915802F6
:101630008770089590915802977081E009F480E0D6
:10164000089580918402089590918402892B80935B
:101650008402089580959091840298239093840247
:10166000089510928402089590918302892B8093AB
:10167000830208958095909183029823909383022A
:10168000089510928302089508950E94440B0895CE
:1016900090915902292F282331F080958923809336
:1016A00059020E94450B089508950E94540B089515
:1016B00090915A02292F2823281729F0982B9093CC
:1016C0005A020E94550B089590915A02292F2823FF
:1016D00031F08095892380935A020E94550B08951A
:1016E00080915A02882329F010925A0280E00E94C9
:1016F000550B0895CF93C091840280918302C82B2B
:1017000080915A02882331F0C82B0E9497218111C1
:101710000E94700B8C2FCF910895CF93DF93C091CF
:101720000201D09103010E947A0B8883C0910201CB
:10173000D091030148E050E060E572E0CE010E94E4
:101740003F2D892B59F088E0FE01A0E5B2E0019021
:101750000D928A95E1F7CE010E942621DF91CF916B
:101760000895CF93DF93C0910001D09101010E94B1
:101770007A0B8983C0910001D091010140E250E0D1
:1017800060E372E0CE010E943F2D892B59F080E288
:10179000FE01A0E3B2E001900D928A95E1F7CE013F
:1017A0000E943121DF91CF91089580913A018823E1
:1017B00039F08091FF0287FF03C00E94B10B0895AA
:1017C0000E948D0B089508950E94E30B0895909157
:1017D000000392FF11C098E0899F90011124622BB1
:1017E000609358020E942207809158028695869540
:1017F00086950E94E40B08950E9422070895109296
:10180000580280E00E94E40B089590915802809560
:10181000892380935802282F277069F4891759F07B
:101820009091000392FF07C08695869586950E9449
:101830002E070E94FF0B08959091000392FB222730
:1018400020F9281769F080FB92F9909300038091AA
:10185000FF02909100030E94650C82E00E94050C3B
:1018600008958091000382FB882780F991E0892701
:101870000E941C0C089581E00E941C0C089580E0D9
:101880000E941C0C08956FEF7FEF90E080E00E94B3
:10189000912D089590E080E00E945D2D863E9E4F40
:1018A00019F40E94C01F089580E0089582E090E03E
:1018B0000E94552D089583E090E00E94552D0895D3
:1018C00084E090E00E945D2D0895BC0184E090E0EA
:1018D0000E94912D0895AB01BC018FE090E00E9421
:1018E000852D0895AB01BC0183E190E00E94852D18
:1018F000089560E070E0CB010E94720C089560E0F2
:1019000070E0CB010E946B0C0E94790C0895A8E056
:10191000B0E0EDE8FCE00C94042D66EE7EEF90E084
:1019200080E00E94912D60E082E090E00E94732DA3
:1019300081E08093EE0161E083E090E00E94732DEE
:1019400060E074E184E090E00E94912D60E086E028
:1019500090E00E94732D60E087E090E00E94732D7C
:1019600040E050E0BA0188E090E00E94852D60E000
:1019700084E290E00E94732D60E087E190E00E9495
:10198000732D60E08CE090E00E94732D60E08DE0AC
:1019900090E00E94732D19821A821B821C821D8284
:1019A0001E821F82188648E050E068E170E0CE0198
:1019B00001960E94632D40E050E0BA0180E290E081
:1019C0000E94852D80E00E94D91F0E9408200E945D
:1019D0007F0C2896E2E00C94202D0E94870C08953D
:1019E000682F8EE090E00E94732D0895A6E0B0E08D
:1019F000ECEFFCE00C94022D0E945C238C018091A2
:101A00008502909186028017910781F019821A82CF
:101A10000E945C23682F49815A81792F80E090E0F1
:101A20000E944B0310938602009385022696E4E001
:101A30000C941E2D0E9433106093970270939802AD
:101A40008093990290939A02609393027093940208
:101A500080939502909396020895089508950E94A8
:101A60002D0D089508950E94320D089581E0089586
:101A70008DE490E10E9460140E942E0D0E942F0DB3
:101A800008950E9411120895089508950E94440D2A
:101A90000E94450D08950E944A0C811102C00E94C7
:101AA000ED0C0E94560C80939B020E94600C909358
:101AB00000038093FF020E9440170E945B0C0E946B
:101AC000F5068091ED010E940D0708950E945323B1
:101AD0000E940D100E9418200E9433120E9457117C
:101AE0000E944B0D0E941F030E946C180E947015EB
:101AF0000E9445120E94330D0895A6E0B0E0E3E88D
:101B0000FDE00C94FB2C0E94360D811110C00E9448
:101B1000F60C0E9411120E9414120E94D21C0E9404
:101B200067140E9432032696EBE00C94172D0E9456
:101B30007A1187E8A82E82E0B82E750110E0F7012F
:101B400001917F01812F0E9457101F5F1C3009F403
:101B500041C00817A1F380919B0281FD0E945D1096
:101B60000E94410DC82E10E099249394812F0E9469
:101B70005710082FF50181915F01081729F1D02E28
:101B8000D826F12CEE24E3948D2D8E21A9F0CC20C3
:101B900099F0F9821A830E945C239C838B839D8237
:101BA00091E0802F8E2109F490E049815A816B8168
:101BB0007C818D810E944B03F394EE0CF6E0FF12C2
:101BC000E3CFF501319700831F5F1C3079F60E9447
:101BD0001A0D9FCF0813BFCF9ACF1F93CF93DF93D8
:101BE0000E941C0FEC01C11580E5D807F0F5C11566
:101BF00080E4D80708F09CC0C03ED10520F5CD3C5C
:101C0000D10508F082C0C83AD10578F4C53AD105AB
:101C100008F073C0C130D10519F1209709F1C43023
:101C2000D105F0F4D0E0C0E01BC0C33CD105D0F733
:101C3000C85AD0E0CC0FDD1FCC58DE4F0990D881B8
:101C4000C02DD4640DC0C11580E2D80708F0D1C002
:101C5000C11581E0D80708F05AC0C83ED10510F779
:101C6000CE01DF91CF911F910895C03682E5D8074C
:101C700018F5C03482E5D80708F06BC0C03282E5A1
:101C8000D80708F05FC0C11582E5D80708F497C0EF
:101C90002C2F2695269580E2289F900111248C2FC9
:101CA0008370C1E0D0E002C0CC0FDD1F8A95E2F75F
:101CB000C22BD32BDD68D4CFC03A82E5D80760F4BD
:101CC000C03882E5D80708F459C0CF71D0E0DC2FC6
:101CD000CC27C46FD06AC4CFC03C82E5D80708F4D3
:101CE00062C0C03E82E5D80708F09CCFDC2FCC272D
:101CF000CC27DF71C06FD06AB3CFC55AD0E0C655CC
:101D0000DE4FC881D0E0D064ABCFD065A9CF8D2F96
:101D10000E94BE0F182FCE0199270E941C0FC12FC1
:101D2000D0E0DC2FCC27CC27DF71C82BD92B98CF64
:101D3000CE0199270E941C0FCC27DF70C82BD92B0E
:101D4000D06A8ECFCF71D0E0DC2FCC27C16FD06AA4
:101D500087CF2C2F26952695277080E2289F90010B
:101D600011248C2F8370C1E0D0E002C0CC0FDD1FA6
:101D70008A95E2F7C22BD32BDC6872CF2C2F2695E5
:101D80002695277080E2289F900111248C2F837064
:101D9000C1E0D0E002C0CC0FDD1F8A95E2F7C22B74
:101DA000D32BDA685DCF8C2F8F710E94BE0FC82FA6
:101DB000D0E0DC2FCC27CC27DF71D06251CF8C2F25
:101DC0008F710E94BE0F55E0D695C7955A95E1F7E1
:101DD000CF70D0E0DC2FCC27282F30E084FF05C067
:101DE00044E0220F331F4A95E1F7C22BD32BD06971
:101DF00037CF8D2F8F710E94BE0F182FCE019927DC
:101E00000E941C0FC12FD0E0DC2FCC27CC27DF7124
:101E1000C82BD92BD2CF462F7C3030F4663020F43B
:101E2000672F0E943C19089590E080E008950E9479
:101E30000B0F0E94ED0D089582389105B9F1B0F4B1
:101E40008133910509F47DC048F48932910509F484
:101E50006DC08A32910509F47BC0089585339105E0
:101E600009F45FC08933910509F10895833E910516
:101E7000D9F138F4803E910529F1823E910579F13E
:101E80000895863E9105D9F1873E910509F43EC03B
:101E9000843E910541F52091000321FF24C08091EB
:101EA000FF0284FD19C087EE90E008952091FF02A3
:101EB000237009F05AC02091000323FF14C089E267
:101EC00090E008952091FF0220FD38C0309100037A
:101ED00030FF09C024FF43C090E080E008952091C6
:101EE000FF0222FDF7CF08952091FF0222FD3AC0A4
:101EF0003091000330FD39C024FFF5CFEDCF2091A4
:101F0000FF0223FFF0CF24FDE7CFCDCF2091FF02CA
:101F100023FD2EC03091000331FFEECF84EE90E020
:101F200008952091FF0225FFDECFC9CF2091FF0247
:101F300025FD21C02091000323FFD5CF89E390E048
:101F4000D2CF2091FF0226FFCECF8AE290E0089503
:101F50002091FF0226FFC7CF81E390E0089583EE32
:101F600090E0089582EE90E0089580EE90E008956C
:101F700086EE90E0089585E390E008959091FF0249
:101F800092FF10C041E0282F2471243009F040E076
:101F900031E0282F2871283009F030E0431711F084
:101FA0002CE0822793FF10C041E0282F24712431B8
:101FB00009F040E031E0282F2871283109F030E0A5
:101FC000431711F02CE082273091000330FF10C03E
:101FD00051E0282F2171213009F050E041E0282FF5
:101FE0002871283009F040E0541711F029E08227C9
:101FF00031FF10C041E0282F2171213109F040E06C
:1020000031E0282F2871283109F030E0431711F012
:1020100029E0822794FD877E089510920103109293
:10202000020310920303109204030895CF92DF92EB
:10203000EF92FF926B017C010E94111281110EC080
:102040000E946823C61AD70AE80AF90AC092010357
:10205000D0920203E0920303F0920403FF90EF900A
:10206000DF90CF9008950F931F930E941112882341
:1020700029F00E9468231F910F9108950E94682300
:102080000091010310910203209103033091040396
:10209000600F711F821F931FEECF80E00895089597
:1020A0000E944F10089508950E9453100895E82F3C
:1020B000F0E0EE5EFC4F80810895089580EA8A95F5
:1020C000F1F7089500C008950E945E1008950895E4
:1020D0000E9467100895A6E0B0E0E1E7F0E10C94FB
:1020E000002D0E941112F82E60911E03882309F41E
:1020F00040C086E0E82E8E010F5F1F4FF8018E2D45
:1021000011928A95E9F7862F90E0B8018E5E9C4F78
:102110000E9455128823B9F08091050390E046E0B3
:1021200050E0B8018E5E9C4F0E943F2D21E020932D
:102130009C02892B91F4F12C0E9454108F2D26962D
:10214000E6E00C941C2D80919C028823A1F3F801F9
:102150001192EA94E9F710929C02A0910503B0E075
:10216000AE5EBC4F86E0F80101900D928A95E1F7D2
:10217000E3CF70E06E5E7C4F8091050390E08E5E51
:102180009C4F0E94DC120E946810D8CFF894E82F70
:10219000E295EF70F0E031A1282F2F7081E090E000
:1021A00001C0880F2A95EAF7982F9095932391A361
:1021B00092A1892B82A378940895CF93DF93C3EBE8
:1021C000D1E089918F3F11F00E94C61081E0C93B98
:1021D000D807B9F7CDEAD1E089918F3F11F00E947D
:1021E000C61081E0C33BD807B9F7DF91CF910895BE
:1021F000B0E0A0E0EEEFF0E10C94FE2CEC01D62E66
:10220000062F10E0C8018D549E4F7C01FC01808197
:102210008F3F09F445C0F894E82FE295EF70F0E0A5
:1022200091A18F7021E030E001C0220F8A95EAF77A
:10223000892F822B81A382A12095282322A3789421
:102240000E946210EDEAF1E043EB51E031E0C12C75
:1022500021912F3F51F1A22FA295AF70B0E090963F
:102260008C9190E02F7002C0959587952A95E2F7A2
:1022700080FD1BC0832FC82A330F4E175F0741F71D
:10228000F70180818F3F11F00E94C61061E0C110FC
:1022900001C060E08D2D0E946410C00FD11FC88264
:1022A000CDB7DEB7E8E00C941A2D80E0E4CF809142
:1022B00004018091040196E0811190E090931E0347
:1022C00086E0891B809305030E94DD108CE0E2E12B
:1022D000F3E0DF01982F1D929A95E9F7E6E0F3E02D
:1022E000DF011D928A95E9F786E00E94B8110E94ED
:1022F00050100895ACE0B0E0E0E8F1E10C94012D5D
:102300008E010F5F1F4F8CE0F80111928A95E9F75B
:10231000F12C6F2DC8010E94F810F394F6E0FF1223
:10232000F8CF4CE050E0B80186E093E00E943F2DEA
:1023300021E0009709F420E0892B41F08CE0F801BE
:10234000A6E0B3E001900D928A95E1F760911E033B
:1023500070E06E5E7C4F46E086E093E00E94B9112B
:10236000182F0E946B10812B2C96E5E00C941D2DEC
:102370000895CF92DF92EF92FF921F93CF93DF9356
:102380006C017B01122F222371F0C42FD0E0AE012B
:10239000BC01C7010E943F2D892B71F0AE01B6012F
:1023A000C7010E944C2D812FDF91CF911F91FF908B
:1023B000EF90DF90CF90089510E0F5CF0E94682352
:1023C0006093A0027093A1028093A2029093A30253
:1023D000089580939F0208958091A6028A3010F09C
:1023E00010929F0280919F0208951F93CF93DF93D5
:1023F000C8ECD0E00E94CD2C182F81110AC08FE3C9
:102400009CE90197F1F700C00000219799F70E941D
:10241000C82C812FDF91CF911F9108958091A50243
:1024200008958091A402089580919F02811115C0A2
:102430000E941112811111C06091A0027091A1023D
:102440008091A2029091A3020E948323693B7B406A
:102450008105910510F00E94E72308950E94111252
:1024600091E0892708950E94F5118093A4020E94AB
:102470002E128093A5020E940E12809304010E94E6
:10248000111281110E948B1208950E941112811164
:1024900004C00E948E120E94DE11089581E0909186
:1024A000A6029A3008F080E008950F931F93CF930F
:1024B000DF93EC018B018091A6028A30B8F4B80159
:1024C000CE010E94D912C82F811122C08091A6028C
:1024D0008F3FB9F40E945C2390939E0280939D02EB
:1024E0008C2FDF91CF911F910F91089580919D02C4
:1024F00090919E020E947423843F914000F7C0E0B7
:10250000EFCF8F5F8093A6028A3020F7C1E0E8CF3B
:102510001092A602E5CF0E944A2408950E944D24FD
:102520000895B0E0A0E0E7E9F2E10C94FF2C790116
:10253000C82F880FDD0B41155105A9F0FE0193E06E
:10254000EE0FFF1F9A95E1F7EB5FFE4F81819281BD
:1025500089559D4F208130E04217530708F49A01B6
:10256000A9010E944C2DCE010E943625D82E882329
:10257000D1F001151105B9F083E0CC0FDD1F8A956C
:10258000E1F7FE01EB5FFE4F438150E004171507B2
:1025900008F4A801CB5FDE4F6C817D8169557D4FCA
:1025A000C7010E944C2D8D2DCDB7DEB7E7E00C940E
:1025B0001B2D0E94EB1308950E940C140895A1E0B6
:1025C000B0E0E5EEF2E10C94022D81E089830E94F7
:1025D000EC1181110FC010E000E030E020E041E09C
:1025E00050E0BE016F5F7F4F83E00E9491128983AC
:1025F0000E94E91189812196E4E00C941E2DA4E04B
:10260000B0E0E5E0F3E10C94022D6091C10270911D
:10261000C2028091C3029091C4020E94832311E000
:10262000643671058105910518F10E9433106E5FC3
:102630007F4F8F4F9F4F69837A838B839C8310E0FA
:1026400000E030E020E044E050E0BE016F5F7F4FEB
:1026500082E00E949112182F882351F00E94682373
:102660006093C1027093C2028093C3029093C4022C
:10267000812F2496E4E00C941E2DB0E0A0E0E3E46A
:10268000F3E10C94FC2C7C015B016A010E944E1268
:1026900001E010E0882311F00AE010E0C1E0D0E092
:1026A000B501C701F6010995811104C021960C17E7
:1026B0001D072CF4CDB7DEB7EAE00C94182DCC9FA3
:1026C0009001CD9F300D300D112490E080E045E366
:1026D0004A95F1F70000019682179307C1F7E0CF02
:1026E000A7E0B0E0E6E7F3E10C94FC2C7B01C0909E
:1026F000B901D090BA0101E010E09E01295F3F4F7F
:1027000050E040E070E060E080E00E949112182FFD
:10271000882309F448C056018FEFA81AB80A6091BF
:10272000BD027091BE028091BF029091C0020E94D2
:102730008323643671058105910568F106E010E098
:102740009E012F5F3F4F50E040E070E060E081E08D
:102750000E949112D82E66E070E0C5010E946D18AB
:1027600011E09F81981310E01D2141F10E94682320
:102770006093BD027093BE028093BF029093C0022B
:1027800086E0FE013196A7EBB2E001900D928A95AA
:10279000E1F711E013C066E070E0C5010E946D181A
:1027A0009F818913CBCF86E0F6013196DE01119629
:1027B00001900D928A95E1F71111E2CF86E0E7EBE7
:1027C000F2E0D70101900D928A95E1F7812F2796CB
:1027D000EAE00C94182D0F931F93CF93DF93EC0135
:1027E0008B0140E753E10E943D13811106C080E058
:1027F000DF91CF911F910F9108954FEF52E1B801F2
:10280000CE010E943D13882391F34FED52E1B801B0
:10281000CE010E943D13ECCF0F931F93CF93DF9314
:10282000C091B901D091BA01CE01019626E0FB0119
:10283000DC0101900D922A95E1F766E070E00E94BC
:102840006D1888836F81788589859A850091B30298
:102850001091B4022091B5023091B6026017710751
:102860008207930751F06093B3027093B402809390
:10287000B5029093B6020E9416108B850E94E91152
:10288000DF91CF911F910F9108950E9422270E94FE
:10289000660D0E942F2708950E9434270E947D0D07
:1028A0000E944E2708950E94F5220E9408270E9448
:1028B000380D0E9445140E944C140E94460DFBCF17
:1028C0009093CB018093CA010895089508958BEEEB
:1028D0000E947F168A3F61F40E9473168093CE0295
:1028E0000E9473168093CF020E9473168093D002C9
:1028F0002091CE028091FD02282B8091CF029091F1
:10290000D0023091CC0232273770482F492B50919A
:10291000D102452B342B09F48CC02093CC02322FEA
:10292000307424FF91C0311103C0803809F087FF53
:1029300081E825FF8FC027FD03C0903809F097FF7D
:1029400091E8322F37703093CE0291959093CF0259
:1029500081958093D0028091CB0222FF81C08111AA
:1029600011C00E945C239093CA028093C90281E047
:102970008093CB021092C8021092C7021092C60236
:102980001092C5024091CF022091D002842F822B59
:10299000D1F182E08093CB026091C5027091C602B2
:1029A000620F711D27FD7A952091C7023091C802F0
:1029B000240F311D47FD3A9588279927861B970BD1
:1029C00097FD0196959587958093D102A90137FFD0
:1029D00002C04F5F5F4F559547954093D202880FD5
:1029E000990B860F971F9093C6028093C502440FE0
:1029F000550B241B350B3093C8022093C70210924D
:102A0000CF021092D0028091CE028B7F8093CE02B3
:102A10008091CF029091D002892B9091D102892B85
:102A200021F08DEC92E00E9466148DEC92E00E9401
:102A30003F211092CF021092D0021092D102109238
:102A4000D2021092CE020895311102C087FF71CFD9
:102A50008FE76FCF27FD02C097FF73CF9FE771CF3E
:102A6000813001F58091C9029091CA020E947423BD
:102A70008C329140B8F48091CE0284608093CE0273
:102A80008DEC92E00E943F218FEF91EE24E0815087
:102A900090402040E1F700C000008091CE028B7F83
:102AA0008093CE021092CB02AECF85EF0E947F16AC
:102AB000089584EF0E947F1608958091D3028111BA
:102AC00002C00E94551580EF0E947F168091D302AC
:102AD000811102C00E94591581E08093D3020895AC
:102AE0000E94D6152FEF83ED90E321508040904057
:102AF000E1F700C000008FEF0E947F160E9473165E
:102B00000E9473160E945D150E9465140895089531
:102B10002998219A08952198299A08952198299A07
:102B200085E08A95F1F7000083B18695817008955C
:102B300008952A98229A089522982A9A0895229808
:102B40002A9A85E08A95F1F7000083B182FB8827F5
:102B500080F908950E9488150E949C150895CF93CE
:102B6000DF93EC010E948E15882311F0209721F449
:102B7000CE01DF91CF91089585E08A95F1F70000AD
:102B80002197F0CFCF93DF93C2E3D0E00E948E1560
:102B9000811102C0209721F4CE01DF91CF910895D9
:102BA00085E08A95F1F700002197F0CF0E94871504
:102BB0000E9498152FEF81E19AE7215080409040C4
:102BC000E1F700C000000E94AA150895CF92DF929D
:102BD000FF920F931F93CF93DF931092D4020E9422
:102BE0008B150E949C1584E690E00E94AF15892BFE
:102BF000C9F00E949F158823B9F085E08A95F1F706
:102C000000000E949F1582E08093D4020E94AA15C2
:102C1000C0E08C2FDF91CF911F910F91FF90DF903B
:102C2000CF90089581E0F0CF0E94C215892B11F456
:102C300083E0EACF10E000E0D1E0C0E0FF24F394AD
:102C4000CC24C394D12C82E390E00E94AF15892B51
:102C500011F484E0D9CF0E949F15882341F0DF252D
:102C6000C601002E01C0880F0A94EAF7C82B0E9403
:102C7000C215892B11F485E0C7CF0F5F1F4F0830B5
:102C8000110509F782E390E00E94AF15892B11F43A
:102C900086E0BACF0E949F158D1711F080E1B4CF66
:102CA0000E94C215892B11F487E0AECF82E390E039
:102CB0000E94AF15892B61F00E949F1581110AC0F7
:102CC00085E08A95F1F700000E949F1589E09CCF6E
:102CD00088E09ACF0E94C215892B11F48AE094CF24
:102CE0000E94AA1596CFCF93CBEF0E94E615C15054
:102CF00021F09091D4029111F8CFCF910895EF92E5
:102D0000FF920F931F93CF93DF93E82E1092D4027C
:102D10000E94AA158FE891E00197F1F700C000002A
:102D20000E9499150E948B1580E197E20E94AF15D1
:102D3000892B59F48AE08093D4020E94AA1580E07E
:102D4000CDB7DEB7E6E00C941C2DD0E0C0E011E07A
:102D5000F12C01E090E59A95F1F7C7010C2E02C025
:102D6000959587950A94E2F780FF09C010270E9485
:102D70009C150E94C215892B29F482E0DCCF0E94A9
:102D80009915F7CF82E390E00E94AF15892B11F4DB
:102D900083E0D1CF2196C830D105E1F680E58A9550
:102DA000F1F7112341F00E949C150E94C215892B56
:102DB00029F484E0C0CF0E949915F7CF82E390E018
:102DC0000E94AF15892B11F485E0B5CF90E59A9557
:102DD000F1F70E949C15C2E3D0E00E949F15882362
:102DE00051F0209711F486E0A6CF25E02A95F1F75F
:102DF00000002197F2CFCD2BB1F382E390E00E9447
:102E0000AF15892B11F487E096CF0E94C215892B4C
:102E100079F488E090CF85E08A95F1F7000021975A
:102E20000E949F15811107C02097A9F789E083CFE1
:102E3000C2E3D0E0F5CFCD2BC9F30E94AA150E94C2
:102E400073167ECF0E94430C089580E00E945710B5
:102E5000817008950E947A112FEF86E791E021504A
:102E600080409040E1F700C000000E947A110E946B
:102E70002517882321F00E9422170E94C32308955A
:102E80000E942A170895EBEFE80FEF3308F062C0B5
:102E9000F0E0EB54F24D0C94E72C0E94ED0C81E035
:102EA000089580919B02807F80939B0281E08093B4
:102EB000D80208950E949402F2CF90919B02892F2C
:102EC0008E7F90FF816080939B0280FDE8CF817FA1
:102ED00080939B02E4CF90919B02892F8D7F91FF7D
:102EE000826080939B0281FFDACF80919B02816098
:102EF000EFCF90919B02892F8B7F92FF846080930C
:102F00009B0282FDF2CFCBCF90919B02892F877FCE
:102F100093FF886080939B0283FDE7CFC0CF0E9420
:102F2000AA069091FF02892F97FB87F9805880931A
:102F3000FF02B5CF81E00E94F5060E94AA06AFCF3E
:102F4000895391E001C0990F8A95EAF7892FF3CF51
:102F50008D51F7CF80E0089580E008950E94AC176E
:102F60000895CF93C82F8091D8028130B9F088237B
:102F700031F08230A1F11092D80280E00DC00E94A1
:102F8000210B8232D1F78C2F0E94AC1781111BC00C
:102F90008C2F0E9443178170CF9108950E94210BBE
:102FA000823289F38C2F0E94AE1781110AC0C4317E
:102FB00099F060F4CB3029F0C03169F782E080935A
:102FC000D80281E0E8CF81E090E0E5CFC93221F07E
:102FD000C833B9F380E0DFCF1092D802FBCFC932FB
:102FE00009F440C0F0F4C431E9F1A8F481E0C7303D
:102FF00099F680932C0184E180932B018AE08093E1
:103000002A018EE18093290188E08093260188E2DD
:103010008093250104C082EE8C0F8A3070F181E02C
:10302000BBCFC03509F450C0B8F48AE0CF34B9F74B
:10303000E091D502F091D602309789F32081082ED5
:10304000000C990B820F911D8F3F910509F00CF434
:103050003FC08FEF8083E3CFC135C1F181E0C2353E
:1030600039F39ACF8091D7028823C9F21092D70200
:103070001092D6021092D502D2CFCD51C093D70272
:10308000C330C9F048F4C13099F08BE291E0C2300E
:1030900051F01092D702C3CFC53099F078F085E295
:1030A00091E0C630B1F79093D6028093D502B7CFA6
:1030B0008CE291E0F8CF8AE291E0F5CF89E291E0ED
:1030C000F2CF86E291E0EFCF86EFB2CF8FEFB0CFB5
:1030D00097FFC0CF1082A3CF0895FC01680F791F1E
:1030E0008FEF91E36E177F0709F4089521918227EE
:1030F00028E030E087FF06C0880F8927215031097A
:10310000C9F7F0CF880FFACF84E0089550E0440F5C
:10311000551F9CE0699F400D511D112490E9899F26
:10312000400D511D1124CA01899608950F931F93D4
:10313000CF93DF938430C8F46C30B8F44630A8F4F1
:103140000E9486188C010E94552DC82FD0E0DC2FDC
:10315000CC27C80101960E94552D9E01282BC9013C
:10316000DF91CF911F910F91089590E080E0F8CF0B
:103170000F931F93CF93DF93122F032F843078F494
:103180006C3068F4463058F40E948618EC01602FC9
:103190000E94732D612FCE0101960E94732DDF9145
:1031A000CF911F910F9108951F93CF93DF93D0E09C
:1031B000C0E011C0412F6C2F8D2F0E9404029C0192
:1031C000412F6C2F8D2F0E94B8181F5F163091F77A
:1031D000CF5FCC3011F010E0EDCFDF5FD43041F79E
:1031E000DF91CF911F910895EF92FF920F931F935C
:1031F000CF93DF93EC018A017C01E60EF71ECE012E
:103200008996CE15DF0529F4CDB7DEB7E6E00C943C
:103210001C2DC03422E0D20740F40E94552DF80145
:1032200080830F5F1F4F2196EACFF8011082F9CFFC
:10323000B0E0A0E0EEE1F9E10C94FE2C7C016A0123
:103240008C01060F171FEC01CE018996C017D1071C
:1032500029F4CDB7DEB7E8E00C941A2DC03422E093
:10326000D20740F4FE01EE19FF09EC0DFD1D60814F
:103270000E94732D2196E8CF843038F46C3028F406
:10328000463018F40E949618089590E080E0089562
:1032900080E1089587E991E00895EF92FF920F93FE
:1032A0001F93CF93DF93EC018A017C01E60EF71E9A
:1032B000CE0187599D4FCE15DF0529F4CDB7DEB776
:1032C000E6E00C941C2DC73921E0D20740F40E949F
:1032D000552DF80180830F5F1F4F2196E9CFF8012C
:1032E0001082F9CFB0E0A0E0E8E7F9E10C94FE2C01
:1032F0007C016A018C01060F171FEC01CE01875972
:103300009D4FC017D10729F4CDB7DEB7E8E00C9484
:103310001A2DC73921E0D20740F4FE01EE19FF094A
:10332000EC0DFD1D60810E94732D2196E7CFCF9398
:10333000DF93C9E6D2E060E0CE010E94732D2196B2
:10334000C11584E0D807B9F7DF91CF910895A8E0BF
:10335000B0E0EDEAF9E10C94FC2CF82E8FE08F152B
:1033600008F46EC08FEF93E00E94552D811168C064
:1033700009E612E0F11035C0FE0131966F0188E0D8
:1033800011928A95E9F77801FFEFEF1AFF0AC80159
:103390000E94552D89831A82882309F451C08130F7
:1033A000D1F4580182E0A80EB11CC7010E94552D2E
:1033B0008A83882309F444C09FEF980F9330F0F478
:1033C000780193E0E90EF11CC5010E94552D8B8315
:1033D0008823B1F11C8260E0C6010E94641E87014F
:1033E000D2CF011594E0190759F1C8010E94552D5B
:1033F000811101C0FA940F5F1F4FBCCF750184305B
:1034000051F702E010E07501EFEFEE1AFE0AC50178
:103410000E94552DF601E00FF11F8083882381F073
:103420008C3741F4E2E0F0E0EC0FFD1FE00FF11FFC
:103430001082D1CF0F5F1F4F57010730110519F7C9
:103440002896EAE00C94182DCF93DF93EB01863198
:103450009C4711F50E94210B9D81992399F08A7A4E
:1034600091E009F490E09093D902811109C089E2BA
:103470000E9442220E94D50B80E0DF91CF910895F7
:1034800085E3F6CF8091D902811104C089E20E94C0
:103490005922F0CF85E3FBCF81E0EFCFCF93DF93CD
:1034A000EC01FB018581882309F4D2C09E013057CD
:1034B0002332310508F0B2C00E94600C90930003E3
:1034C0008093FF02FE01E150F047E232F10520F463
:1034D000EC50F24D0C94E72C8091FF0281608093B8
:1034E000FF0293C0809100038860809300038DC029
:1034F0008091FF028260F3CF8091FF028460EFCF62
:103500008091FF028860EBCF809100038160EDCF56
:10351000809100038260E9CF8091FF028061DFCF5C
:103520008091FF028062DBCF8091FF028064D7CF61
:103530000E94AA068091FF028068D1CF8091FF028D
:103540008C60CDCF809100038360CFCF8091FF024C
:103550008E7FC5CF80910003877FC7CF8091FF0208
:103560008D7FBDCF8091FF028B7FB9CF8091FF020D
:10357000877FB5CF809100038E7FB7CF8091000306
:103580008D7FB3CF8091FF028F7EA9CF8091FF0204
:103590008F7DA5CF8091FF028F7BA1CF0E94AA06CD
:1035A0008091FF028F779BCF8091FF02837F97CF1F
:1035B000809100038C7F99CF8091FF0282FB992735
:1035C00090F921E0922790FB82F990FB83F987CF55
:1035D00080910003982F909591708E7F892B90FB9E
:1035E00081F983CF9091FF02892F8F7B96FF8064B2
:1035F00076CF0E94AA069091FF02892F97FB87F948
:1036000080586DCF81E00E94F00C8091FF02909174
:1036100000030E94650C0E94AA0680E0DF91CF9112
:10362000089580E0F0CF9091FF02892F8F7E94FF64
:10363000806155CF9091FF02892F8E7F90FF81602E
:103640004ECF90910003892F877F93FF88604DCFE5
:1036500081E0E4CF282F35EB2303C001112497FF2D
:1036600004C080589109892F089580589F4FFBCF3F
:103670008091E00280FF0DC060912A0170E0660F2A
:10368000771F6038710570F56115710569F1862F36
:10369000089581FF07C060912A0184E0689FB0010E
:1036A0001124EFCF60912A0182FD0AC08091DF02D0
:1036B0008823A9F02091290160912A01821710F036
:1036C00088E0ECCF869FC001112433E0880F991F5A
:1036D0003A95E1F7622F70E00E94D32CD2CF68E0D8
:1036E00070E0D5CF8FE7089581E008958091E002E2
:1036F00080FF0CC06091260170E075956795759507
:1037000067956115710549F1862F089581FF06C0FF
:103710006091260170E075956795F3CF6091260161
:1037200082FD0BC09091DE029923A1F060912501EA
:1037300080912601961738F0682F70E06038710587
:1037400000F38FE70895899FC001112470E00E9463
:10375000D32CF4CF61E070E0D7CF81E00895909151
:10376000E3022091E402922B2091E602922B209119
:10377000E502922B31F098E09093DF0291E0909374
:10378000DE028D3C31F40E94381B81958093E40267
:1037900008958E3C19F40E94381BF8CF8F3C31F409
:1037A0000E94381B81958093E3020895803D19F4AF
:1037B0000E94381BF8CF893D29F40E94761B809324
:1037C000E50208958A3D21F40E94761B8195F7CF8A
:1037D0008B3D31F40E94761B81958093E60208951B
:1037E0008C3D19F40E94761BF8CF9FE2980F983019
:1037F00070F4815D990B21E030E001C0220F8A95C1
:10380000EAF78091E202822B8093E20208958D3DD7
:1038100031F48091E00281608093E00208958E3D52
:1038200021F48091E0028260F7CF8F3DB9F780915B
:10383000E0028460F1CF4091E3028D3C59F4809125
:10384000E40287FF0DC01092E40241110BC01092F8
:10385000DF0208C08E3C81F48091E40218169CF3CC
:10386000442381F08091E5029091E602892B09F0D2
:103870005AC01092DE0208958F3C49F447FFF0CF02
:103880001092E3028091E4028111ECCFE0CF803D01
:1038900019F41416ACF3E4CF9091E502893D29F4B4
:1038A0001916F4F61092E502DBCF8A3D19F497FF62
:1038B000D7CFF8CF9091E6028B3D29F497FFD0CF78
:1038C0001092E602CDCF8C3D19F41916CCF3C8CF77
:1038D0009FE2980F983090F4815D990B21E030E0E1
:1038E000B90102C0660F771F8A95E2F7CB01809578
:1038F0009091E20289238093E202B2CF8D3D31F4B0
:103900008091E0028E7F8093E002AACF8E3D21F469
:103910008091E0028D7FF7CF8F3D09F0A1CF80919C
:10392000E0028B7FF0CF08950E945C239C01909170
:10393000E3028091E402982B21F03093DD02209382
:10394000DC029091E5028091E602982B21F0309301
:10395000DB022093DA0281EE92E00E943F2108957B
:1039600086E0E1EEF2E0DF011D928A95E9F7109220
:10397000DF021092DE021092E0020895FC018281C3
:1039800081110EC0838181110BC08481811108C017
:1039900091E08581811101C090E0892F81700895A7
:1039A00081E0FCCFA6E0B0E0E8EDFCE10C94032D53
:1039B00086E0E1EEF2E0DE01119601900D928A952B
:1039C000E1F71092E3021092E4021092E5021092E5
:1039D000E6028B819C81892B89F08091DC02909199
:1039E000DD020E947423AC019091DF029923C9F19A
:1039F00080912B018417150608F440C08D819E81AB
:103A0000892B91F08091DA029091DB020E9474235D
:103A1000AC019091DE02992309F46AC080912701DC
:103A20008417150608F472C0BE016F5F7F4F81EEE8
:103A300092E00E948A22811105C081EE92E00E94EC
:103A4000BE1C81110E94941C86E0FE013196A1EEFD
:103A5000B2E001900D928A95E1F72696E3E00C948E
:103A60001F2D20912C018AE0289F900111242417FA
:103A7000350720F69F5F9093DF0202C09F3FD1F78A
:103A80001B81112359F00E94381B9FEF11160CF473
:103A900091E0899F802D11248093E3021C811123E2
:103AA00059F00E94381B9FEF11160CF491E0899F8A
:103AB000802D11248093E4028091E302882309F48D
:103AC0009DCF1091E402112309F498CF0E942A1B84
:103AD000882351F08093E302812F0E942A1B8823C0
:103AE00029F08093E4028ACF81E0F4CF81E0F9CF1E
:103AF000209128018AE0289F90011124241735077E
:103B000008F092CF9F5F9093DE0202C09F3FD1F7F3
:103B10001D81112359F00E94761B9FEF11160CF4A2
:103B200091E0899F802D11248093E5021E8111234D
:103B300059F00E94761B9FEF11160CF491E0899FBB
:103B4000802D11248093E6028091E502882309F4F8
:103B50006BCF1091E602112309F466CF0E942A1B55
:103B6000882351F08093E502812F0E942A1B88232D
:103B700029F08093E60258CF81E0F4CF81E0F9CFBD
:103B8000B0E0A0E0E6ECFDE10C94FD2CE82FF0E0C5
:103B9000E45CFE4FB490282F26952695269530E0BC
:103BA000F901E452FE4F0491877010E0082E02C024
:103BB000159507950A94E2F701701127F901E4536E
:103BC000FE4FE490F12C082E02C0F594E7940A947D
:103BD000E2F791E0E922FF24F901E454FE4FC49199
:103BE000D0E002C0D595C7958A95E2F7C170DD2770
:103BF000C62ED12C0115110549F5E114F10431F05F
:103C000086EE0E94BC03C601009771F5B6018B2DAC
:103C10000E943D04C601009779F5E114F104A1F575
:103C20000115110531F081EE0E940A04C6010097CA
:103C3000C9F5CD2B31F08CE20E945504C114D1049A
:103C4000C9F5CDB7DEB7E9E00C94192D81EE0E94DD
:103C5000BC03C601009789F2EFE9FFE03197F1F765
:103C600000C000000197F6CFEFE9FFE03197F1F7D0
:103C700000C000000197C8CFEFE9FFE03197F1F7EE
:103C800000C000000197C7CF86EE0E940A04C6015B
:103C9000009731F2EFE9FFE03197F1F700C0000043
:103CA0000197F6CFEFE9FFE03197F1F700C0000090
:103CB0000197BDCF8FE99FE00197F1F700C00000A9
:103CC00091E0C91AD108BACFEF92FF920F931F93D8
:103CD000CF93DF93EC01162F0AE08881882309F443
:103CE00059C0813009F052C08981813071F47E0160
:103CF00082E0E80EF11C8A810E945504E701812FC1
:103D000090E00097D9F52196E8CF823041F47E010A
:103D1000E2E0EE0EF11C8A810E94BC03EFCF8330FB
:103D200041F47E01F2E0EF0EF11C8A810E940A0448
:103D3000E5CF843011F02196E2CF2A81229690E0DF
:103D400080E0AE014F5F5F4F2053330B2A303105C7
:103D500050F00097A1F2EFE9FFE03197F1F700C0D2
:103D600000000197F6CF089FB001099F700D112444
:103D7000C901860F971F2981EA01E3CFEFE9FFE030
:103D80003197F1F700C000000197BBCF612F0E946F
:103D9000C01DB9CFCDB7DEB7E6E00C941C2D0F9354
:103DA0001F93CF93DF93C42FD22FFC0185818823EB
:103DB000C9F04093E9020E945C239093E80280934B
:103DC000E70280E28C0F883040F4C77081E001C0C8
:103DD000880FCA95EAF70E945E04DF91CF911F9188
:103DE0000F9108951091E902141332C08091E702F7
:103DF0009091E8020E947423883C910548F5C0E246
:103E0000CD0F1D17B9F080E2810F883040F4177094
:103E100081E001C0880F1A95EAF70E946504C83056
:103E200048F481E09D2F977001C0880F9A95EAF7BA
:103E30000E945E04802F0E945504C83070F6D7702F
:103E400081E001C0880FDA95EAF70E946504C5CFCA
:103E500080E28C0F883008F6C77081E001C0880FBF
:103E6000CA95EAF7F2CF0F93DB0188519C47873060
:103E70009105A0F5FC01EA5EF14D0C94E72C06E2F9
:103E800021EE41EE6AE17CE7CD010E94CF1E80E089
:103E90000F91089507E225EE45EE6BE17CE7F4CF44
:103EA00006E221EE40EE68E17CE7EECF07E225EE88
:103EB00044EE69E17CE7E8CF06E221EE42EE6CE1F8
:103EC0007CE7E2CF07E225EE46EE6DE17CE7DCCF52
:103ED00008E221E045EE6EE17CE7D6CF15968C91A5
:103EE000882319F01092E902D3CF81E0D1CF1F933C
:103EF000CF93DF9387372CE7920759F0C1E08837DB
:103F00009C47E1F4FB01C581CC2371F10E94BA1FEB
:103F100006C0FB01C581CC23B1F00E94B71F0E94EF
:103F200022070E94BD1FD82F0E94BA1FC82F0E94CF
:103F3000B71F4D2F6C2F0E944A08C0E08C2FDF91D5
:103F4000CF911F9108950E94B71F0E942E070E94D3
:103F5000BD1F182F0E94BA1FD82F0E94B71F412FD4
:103F60006D2F0E944A08EACF0E94BA1FEECF8091BF
:103F70002F01089580912E01089580912D010895BB
:103F800085E290E00E94552D843289F486E290E02B
:103F90000E94552D843059F487E290E00E94552DFF
:103FA00091E0813109F090E0892F8170089580E0DF
:103FB000FCCFCF93C82F6FEF811164E285E290E0D0
:103FC0000E94732D6FEFC11164E086E290E00E94C1
:103FD000732D6FEFC11161E187E290E00E94732DB4
:103FE000CF910895089588E290E00E94552D682FA2
:103FF00070E090E080E008950895CF93C62F0E946E
:10400000FC1F6C2F88E290E00E94732DCF910895E1
:1040100080E00E94D91F60E070E0CB010E94FD1F8C
:104020000E94D4180E94971981E00E94D91F089518
:104030000E94F21F0E94F31F0E94FC1F0E94C01FDB
:10404000811102C00E940820089508959C01FB017F
:104050008581882351F0A90157574038510530F424
:10406000822F0E94A71980E0089581E008952FEF24
:10407000FC01208308950E943720089580E0089570
:10408000B0E0A0E0E6E4F0E20C94FE2CEC01E62EB9
:104090000E943E20811110C0E881E150E331B8F464
:1040A000F0E0E35EF14D0C94E72C19828CE08A83FA
:1040B0006E2DCE010E94FC25CDB7DEB7E8E00C9452
:1040C0001A2D89818230C1F028F4813061F08FEFA0
:1040D0008883EECF833099F08430C9F71A821B822F
:1040E0001C821D82E5CF0E9468230E94ED2C6A830A
:1040F0007B838C839D83DCCF0E94F31FF6CF8A8164
:10410000082F10E06E0193E0C90ED11C9CE1F92E3E
:10411000F80E0C30110560F6802F0E945710F60142
:1041200081936F010F5F1F4FF012F3CFC1CF8981D1
:10413000823031F0853059F68A810E942520B8CF2F
:104140006A817B818C819D810E94ED2C0E94FD1FE4
:10415000AFCF4B816A8189810E9496189827892761
:1041600098279D838C83A4CF2C813D8132272327E0
:1041700032274B816A8189810E94B81899CF0E94A9
:10418000D41896CF6E2DCE010E943B2091CF0E9475
:10419000481989838DCF0E944A1998278927982723
:1041A0009A83898385CF6B8170E089819A81AE0182
:1041B0004C5F5F4F9827892798270E944D1978CF29
:1041C0006B8170E089819A81AE014C5F5F4F9827C7
:1041D000892798270E9472196BCF0E94971968CF80
:1041E0000E948418D6CF6B8170E089819A81AE01DC
:1041F0004C5F5F4F9827892798270E94F41858CF63
:104200006B8170E089819A81AE014C5F5F4F982786
:10421000892798270E9418194BCF9093F00280931A
:10422000EF0208950E941112811103C08091EA02E9
:104230000895E091EF02F091F002309729F001909B
:10424000F081E02D0995089580E00895E091EF0256
:10425000F091F002309721F00280F381E02D099572
:104260000895E091EF02F091F002309739F026E0E6
:10427000DC012C930480F581E02D09950895E091EF
:10428000EF02F091F002309739F022E0DC012C933C
:104290000680F781E02D09950895A3E0B0E0E3E5FD
:1042A000F1E20C94042D2091ED023091EE022817DA
:1042B0003907A1F09093EE028093ED02E091EF02B6
:1042C000F091F002309751F023E029839B838A8399
:1042D0000084F185E02DCE01019609952396E2E058
:1042E0000C94202DA3E0B0E0E8E7F1E20C94042D5B
:1042F0002091EB023091EC0228173907A1F090933E
:10430000EC028093EB02E091EF02F091F002309723
:1043100051F024E029839B838A830084F185E02D7A
:10432000CE01019609952396E2E00C94202D209170
:104330000201309103012E5F3F4F80913A018823A3
:1043400079F08091FF0287FF0BC02091000130912E
:1043500001012E5F3F4F9EE180E0915018F40895D7
:1043600096E0FACFF90141919F014423B1F38F5FA9
:10437000F4CF882321F190913A01992311F1909182
:10438000FF0297FF1EC0E82FE695E695E695EE3111
:10439000B0F42091000130910101E20FF32FF11DE3
:1043A000228130E0877041E050E002C0440F551F89
:1043B0008A95E2F72423352381E0232B91F480E0D2
:1043C00008952091020130910301F9013296285F8E
:1043D0003F4F9191981721F0E217F307D1F7EFCFF4
:1043E00081E008959C01FC0132969FEF80E04191AD
:1043F000461751F09F3F19F4411101C0982F8F5F6C
:104400008630A9F79F3F09F40895290F311D97FDC4
:104410003A95F90162830895FC013296089621913C
:10442000261303C0DF0111971C92E817F907B9F7AB
:104430000895E62FE695E695E695EE3168F4E80FE7
:10444000F92FF11D677021E030E001C0220F6A955D
:10445000EAF78281822B82830895E62FE695E6951E
:10446000E695EE3170F4E80FF92FF11D677021E049
:1044700030E001C0220F6A95EAF720958281282357
:1044800022830895682F80913A01882359F0809102
:10449000FF0287FF07C080910001909101010E94F7
:1044A0001922089580910201909103010E94F22146
:1044B0000895682F80913A01882359F08091FF0276
:1044C00087FF07C080910001909101010E942D2279
:1044D000089580910201909103010E940C22089599
:1044E00080913A01882379F08091FF0287FF0BC009
:1044F000E0910001F091010132968EE1DF011D9201
:104500008A95E9F70895E0910201F091030132964E
:1045100086E0F4CFDC01FB0111969C91119781811B
:10452000981322C012968C911297882319F09281C9
:1045300089131AC013968C911397882319F09381CD
:10454000891312C015968C911597882319F09581BF
:1045500089130AC014969C91992321F081E024814B
:10456000291303C080E001C081E08170089508959F
:104570000E94B7220895811106C081E08093F10264
:104580000E94B822089582E0F9CF83E08093F1027F
:104590000E94B82208950E94BB22089581E0809372
:1045A000F1020E94B82208950E94CE220895089533
:1045B00008950E94D8220895089508950E94D72250
:1045C0000895CF930E94DC220E947A110E94DD227E
:1045D000C0E08C2F0E945710811105C0CF5FCC30F6
:1045E000C1F7CF91089581E0FCCF85B7806885BF82
:1045F00085B7806885BF08951F921FB61F9211244A
:104600008F939F93AF93BF938091F202811113C058
:1046100080911F0390912003A0912103B091220368
:104620004196A11DB11D80931F0390932003A09379
:104630002103B0932203BF91AF919F918F911F905F
:104640001FBE1F90189580912703843031F10E947E
:1046500002031092F20288E190E020E40FB6F89491
:10466000A895809360000FBE2093600083B7817F80
:10467000846083BF83B7816083BF7894889583B754
:104680008E7F83BF0FB6F894A895809160008861F3
:1046900080936000109260000FBE08950E94AA06E9
:1046A0000E940703089582E084BD93E095BD9AEFD0
:1046B00097BD80936E0008952FB7F89480911F03E3
:1046C00090912003A0912103B09122032FBF089560
:1046D0002FB7F89460911F037091200380912103FC
:1046E000909122032FBF08959C014FB7F8948091B9
:1046F0001F0390912003A0912103B09122034FBF8B
:10470000821B930B0895CF92DF92EF92FF922FB707
:10471000F894C0901F03D0902003E0902103F09004
:1047200022032FBFA7019601261B370B480B590BFD
:10473000CA01B901FF90EF90DF90CF90089578946F
:104740001F921FB61F9211248F939F93AF93BF9315
:1047500080911F0390912003A0912103B091220327
:104760000196A11DB11D80931F0390932003A09378
:104770002103B0932203BF91AF919F918F911F901E
:104780001FBE1F90189581E08093E00080E2809327
:10479000D8001092C9008FE19EE40197F1F700C0A4
:1047A000000087E090EBDC018093300390933103AD
:1047B000A0933203B093330388E19CE00FB6F894E2
:1047C000A895809360000FBE90936000FFCF88E1B2
:1047D0009CE00FB6F894A895809360000FBE90936C
:1047E0006000FFCF8EE1489B02C08150E1F7489BFB
:1047F000FECF0895589880E28A95F1F7589A089567
:10480000FC013BE03A95F1F798E020E080E031E0F0
:1048100040E14A95F1F7880F489B02C08160232749
:1048200042E04A95F1F7000040E14A95F1F79150D6
:1048300079F790E19A95F1F799B132E03A95F1F76D
:10484000000040E14A95F1F7917092272081920F84
:1048500090830895A1E0B0E0E0E3F4E20C94002D31
:1048600019828C017C01E60EF11C0E151F0541F426
:1048700081E09981911180E02196E6E00C941C2D55
:104880000E94F223CE0101960E940024F801819338
:104890008F01EBCF509A589A08955098589AE89AF9
:1048A000E9E6F0E080818C7F808308956150770B8A
:1048B00091E001C0990F6A95EAF720E031E091118B
:1048C00008C0222391F0589A80E28A95F1F758980F
:1048D0000895492F482339F0589A232740E24A95F2
:1048E000F1F79695ECCF5898F9CF5898EDCFFF9205
:1048F0000F931F93CF93DF93EC018C01060F111DD3
:10490000C017D10729F4CDB7DEB7E5E00C941D2D13
:10491000F9900E94FA2368E08F2D0E945624F0CF70
:104920001F920F920FB60F9211240F931F932F9384
:104930003F934F935F936F937F938F939F93AF9327
:10494000BF93EF93FF93CF93DF930F92CDB7DEB773
:1049500019820E94F223CE0101960E940024082FA2
:10496000069506950695282F22952570902F95700F
:10497000290F922F937026952695920F982797705E
:104980008981982B09F05CC0053008F059C080E19E
:104990008A95F1F7589A509A82E08A95F1F700C00B
:1049A000589888E0089F80011124D801AB5FBE4F62
:1049B0001696ED91FC9117973097A9F06091B90187
:1049C0007091BA0114962D913C911597260F371FBF
:1049D00011968D919C911297680F791F13964C91A7
:1049E00013978C910995F801EB5FFE4F6381662365
:1049F00051F02091B9013091BA0184819581820FE3
:104A0000931F0E9477240E94FA2380E18A95F1F790
:104A100058985098589A80E18A95F1F7F801EB5F21
:104A2000FE4F6081662351F02091B9013091BA01A7
:104A300081819281820F931F0E942A240E94F22377
:104A40000F90DF91CF91FF91EF91BF91AF919F9127
:104A50008F917F916F915F914F913F912F911F9116
:104A60000F910F900FBE0F901F9018950F931F93EB
:104A7000CF93DF93EC0105970CF04CC0F894509A5B
:104A8000589885E08A95F1F700009C2F96959570CF
:104A90008C2F8570980F892F83709695969523E0BB
:104AA000CC0FDD1F2A95E1F7980F8E01092B0E948C
:104AB000FA2300C068E0802F0E94562480E18A9586
:104AC000F1F75098589A489B1EC087E090E04899AB
:104AD0001CC0FE01EB5FFE4F63816623F9F020915D
:104AE000B9013091BA0184819581820F931F0E9490
:104AF0002A24811113C0509A589A7894DF91CF914B
:104B00001F910F91089500C0DECF019729F4509AAC
:104B1000589A789480E0F2CF00C0D9CF0E94F22357
:104B200080E28A95F1F75898509A80E18A95F1F7DA
:104B3000CB5FDE4F6881662351F02091B90130913F
:104B4000BA0189819A81820F931F0E9477240E9463
:104B5000FA23789481E0D2CF8091FB0208959B01E3
:104B6000BA01909127039430E9F48F708093E900A3
:104B70009FEF8091E800915085FD06C085ED8A95F4
:104B8000F1F700009111F5CF8091E80085FF0AC090
:104B900050E040E0C9010E94F2278091E8008E7742
:104BA0008093E800089543E050E0BC0184E00E9457
:104BB000AF25089546E050E0BC0184E00E94AF2597
:104BC000089540E250E0BC0184E00E94AF250895C2
:104BD000CF93DF93EC0148E050E0BC0181E00E94FC
:104BE000AF2588E0FE01A3EFB2E001900D928A9517
:104BF000E1F7DF91CF910895603231F440E250E067
:104C0000BC0182E00E94AF250895809126038111A6
:104C100009C00E94D1290E942E2A8091E20084605E
:104C20008093E20008951092260308950E94CE22F8
:104C300008956091230381E0611101C080E00E942A
:104C4000C52208959091270381E0943009F080E017
:104C5000609123030E94CB22089542E061EC81E041
:104C60000E944D2942E261EC84E00E944D2942E21B
:104C700061EC82E00E944D2942E260EC83E00E94F8
:104C80004D299091270381E0943009F080E06091F4
:104C900023030E94BB22089580912903833009F4E5
:104CA00063C030F48130E1F1823009F4A0C008958E
:104CB0008A3009F48CC08B3009F471C0893009F056
:104CC00052C080912803813209F04DC080912C039D
:104CD00090912D03009719F0029709F044C080913C
:104CE000E800877F8093E8008091E80082FF37C06A
:104CF0009091F3008091F200029731F48091F100DD
:104D0000813011F0863021F48091F1008093FB0214
:104D10008091E8008B778093E8000E94812923C06E
:104D200080912803813AF9F48091E800877F80938D
:104D3000E80080912C0390912D03892B61F468E0A9
:104D400083EF92E070E00E9490288091E8008B77DA
:104D50008093E800089560E090E080E0F3CF8091D8
:104D600027038111C1CF089580912803813AD9F793
:104D700080912C0390912D03892BA9F78091E80055
:104D8000877F8093E8008091E80080FFFCCF8091CE
:104D90003A018093F1008091E8008E77BCCF80913A
:104DA0002803813201F780912C0390912D03892BE8
:104DB000D1F68091E800877F8093E8000E948129E6
:104DC00080912A0380933A010E94AA060895809157
:104DD0002803813241F68091E800877F8093E800C4
:104DE0000E94812980912B038093FC020895809179
:104DF0002803813A09F0B7CF8091E800877F80933C
:104E0000E8008091E80080FFFCCF8091FC02C1CFD8
:104E100084B7877F84BF0FB6F894A895809160000F
:104E2000886180936000109260000FBE80E890E07F
:104E30000FB6F89480936100909361000FBE0E94BA
:104E4000D42208950E94D1290E942E2AE2EEF0E099
:104E500080818460808378940E94AD2C089580E3E3
:104E600091E00E940D21089580912703853031F44F
:104E700080912703853019F00E944E2308950E94E7
:104E8000232380912503882399F30E94E12288231C
:104E900079F30E94DC270E94AA06EACFA0E2B0E0E4
:104EA000E4E5F7E20C94042D80912703843009F5A2
:104EB00083E08093E9008091E80082FF1AC080912E
:104EC000E80090E085FF09C050E040E060E270E05B
:104ED000CE0101960E94412891E08091E8008B77F5
:104EE0008093E800992329F060E2CE0101960E94A8
:104EF0004020A096E2E00C94202D9A0140912E03D0
:104F000050912F030E9485270895492F552743303C
:104F1000510521F168F44130510509F443C0423094
:104F2000510509F444C090E080E050E040E026C024
:104F30004132510551F142325105A9F763307105F3
:104F400090F7FB01EE0FFF1FE254FE4F40815181AD
:104F500065547E4FFB01808190E010C0992781301D
:104F6000910581F0009729F00297E9F6ECEEF1E067
:104F700002C0E6E0F2E0849190E0AF01F9015183D4
:104F800040830895EEEFF1E0F6CF6330710558F6F7
:104F9000660F771FFB01EC53FE4F4081518189E082
:104FA00090E0ECCF82E190E045E652E0E7CF8BE580
:104FB00090E04AE052E0E2CF80E189BD82E189BD24
:104FC00009B400FEFDCF8091D8008F7D8093D8007A
:104FD0008091E00082608093E0008091E00081FD9C
:104FE000FCCF0895AF92BF92CF92DF92FF920F93C2
:104FF0001F93CF93DF936C01EB018A010E94A029DC
:10500000F82E811123C00115110539F0F8018081B6
:105010009181C81BD90BC80ED91EB12CA12C209789
:10502000A9F08091E80085FD22C08091E8008E778C
:105030008093E80001151105A1F0F80180819181AC
:10504000A80EB91EB182A08285E0F82E8F2DDF91C7
:10505000CF911F910F91FF90DF90CF90BF90AF90B5
:1050600008950E94A0298823D1F2F82EEFCFF601EF
:1050700081916F018093F1002197FFEFAF1ABF0A72
:10508000CECFAF92BF92CF92DF92FF920F931F933A
:10509000CF93DF936C01EB018A010E94A029F82EC7
:1050A000811123C00115110539F0F801808191812A
:1050B000C81BD90BC80ED91EB12CA12C2097A9F062
:1050C0008091E80085FD22C08091E8008B77809375
:1050D000E80001151105A1F0F80180819181A80E69
:1050E000B91EB182A08285E0F82E8F2DDF91CF917D
:1050F0001F910F91FF90DF90CF90BF90AF900895D8
:105100000E94A0298823D1F2F82EEFCF8091F100E0
:10511000F60181936F012197FFEFAF1ABF0ACECF3F
:10512000FC0180912E0390912F0386179707A0F022
:105130006115710529F49091E8009E779093E8003D
:1051400090E06115710551F4911108C08091E8005B
:1051500082FF34C080E00895BC01F2CF8091270324
:105160008823C1F18530C1F18091E80083FD30C012
:105170008091E80082FDEACF8091E80080FFE1CFD6
:105180008091F3002091F200382F6115710519F01C
:105190002830310558F091E02830310509F090E0D1
:1051A0002091E8002E772093E800CBCF8191809367
:1051B000F100615071092F5F3F4FE7CF80912703C6
:1051C000882341F0853041F08091E80083FFBECF15
:1051D00081E0089582E0089583E00895FC018091C4
:1051E0002E0390912F0386179707A0F06115710584
:1051F00029F48091E8008E778093E80090E06115B3
:10520000710551F4911108C08091E80082FF35C00A
:1052100080E00895BC01F2CF809127038823C9F173
:105220008530C9F18091E80083FD31C08091E800AC
:1052300082FDEACF8091E80080FFE1CF8091F3000A
:105240002091F200382F6115710519F028303105D1
:1052500058F091E02830310509F090E08091E800A5
:105260008E778093E800CBCF84918093F1003196C4
:10527000615071092F5F3F4FE6CF8091270388234C
:1052800041F0853041F08091E80083FFBDCF81E09F
:10529000089582E0089583E00895982F973028F0CC
:1052A0008F708093E90081E008959093E900242FA6
:1052B000762F50E0981731F07091EC002091ED00BE
:1052C0005091F00021FD02C09F5FE8CF3091EB00CC
:1052D0003E7F3093EB003091ED003D7F3093ED0049
:1052E0003091EB0031603093EB007093EC00209331
:1052F000ED005093F0002091EE0027FDE5CF80E017
:1053000008958091280387FF13C08091E80082FFF1
:1053100006C08091E8008B778093E80004C08091FC
:1053200027038111F2CF0895809127038823D9F3B1
:105330008091E80080FFF8CF8091E8008E77ECCF75
:105340002091E4003091E50095E6A9012091EC0060
:10535000822F817020FF06C08091E80080FF06C088
:1053600080E008952091E80022FD1AC08091270373
:10537000882389F0853089F08091EB0085FD0FC08E
:105380002091E4003091E50042175307F9F2915063
:10539000E1F684E0089582E0089583E0089581E0D5
:1053A00008950E94402A0E94482AE0EEF0E08081A1
:1053B00081608083E8EDF0E080818F77808319BC85
:1053C000A7EDB0E08C918E7F8C9380818F7E80835F
:1053D0001092260308950F931F93CF93DF930E949B
:1053E000402A0E94482AC8EDD0E088818F778883C0
:1053F00088818068888388818F7D888319BC10921A
:10540000270310922303109225031092240300EE29
:1054100010E0F80180818B7F8083888181608883A0
:1054200042E060E080E00E944D29E1EEF0E0808102
:105430008E7F8083E2EEF0E08081816080838081D6
:1054400088608083F80180818E7F8083888180617D
:105450008883DF91CF911F910F910895E8EDF0E0DF
:1054600080818F7E8083E7EDF0E0808181608083A2
:1054700084E082BF81E0809326030E94EB29089597
:10548000E8EDF0E080818E7F80831092E200089545
:105490001092DA001092E10008951F920F920FB659
:1054A0000F9211242F933F934F935F936F937F93AA
:1054B0008F939F93AF93BF93EF93FF938091E100FE
:1054C00082FF0BC08091E20082FF07C08091E10063
:1054D0008B7F8093E1000E94AC2C8091DA0080FFEA
:1054E00019C08091D80080FF15C08091DA008E7FAE
:1054F0008093DA008091D90080FF96C080E189BD59
:1055000082E189BD09B400FEFDCF81E080932703CD
:105510000E9405268091E10080FF19C08091E20081
:1055200080FF15C08091E2008E7F8093E200809121
:10553000E20080618093E2008091D80080628093D5
:10554000D80019BC85E0809327030E94192680911A
:10555000E10084FF2BC08091E20084FF27C080E13E
:1055600089BD82E189BD89B5982F917080FFFBCFFD
:105570008091D8008F7D8093D8008091E1008F7E4C
:105580008093E1008091E2008F7E8093E200809121
:10559000E20081608093E20080912303882309F474
:1055A00049C084E0809327030E9422268091E10075
:1055B00083FF29C08091E20083FF25C08091E10034
:1055C000877F8093E10082E080932703109223037A
:1055D0008091E1008E7F8093E1008091E2008E7FD8
:1055E0008093E2008091E20080618093E20042E0DB
:1055F00060E080E00E944D298091F00088608093F7
:10560000F0000E941626FF91EF91BF91AF919F91FC
:105610008F917F916F915F914F913F912F910F905B
:105620000FBE0F901F90189519BC109227030E946F
:10563000132670CF8091E30087FD93E090932703BA
:10564000B3CF1F920F920FB60F9211242F933F9357
:105650004F935F936F937F938F939F93AF93BF937A
:10566000CF93DF93EF93FF93D091E900DF708091A8
:10567000EC00C82FC17080FDC0E81092E900809155
:10568000F000877F8093F00078940E94652B109241
:10569000E9008091F00088608093F000CD2BCF70FE
:1056A000C093E900FF91EF91DF91CF91BF91AF914E
:1056B0009F918F917F916F915F914F913F912F912A
:1056C0000F900FBE0F901F901895AAE2B0E0EBE686
:1056D000FBE20C94032D88E293E02091F100FC01A1
:1056E0002193CF01F3E080339F07B9F70E944C2646
:1056F0008091E80083FF1EC18091280390912903C7
:105700009A3008F017C1E92FF0E0E05DF14D0C94FC
:10571000E72C803899F0823809F00CC180912C0375
:105720008F70873008F006C18093E9008091EB000C
:1057300085FB882780F91092E90006C08091240338
:1057400090912503911182609091E800977F90934A
:10575000E8008093F1001092F1008091E8008E77CC
:10576000E5C0882309F4D3C0823009F0E3C08091FA
:105770002A038111D6C080912C038F702FEF280F40
:10578000263008F0D7C08093E9002091EB0020FF7D
:10579000C8C0933031F48091EB0080628093EB00BD
:1057A000C0C09091EB0090619093EB0021E030E05D
:1057B00001C0220F8A95EAF72093EA001092EA00CE
:1057C0008091EB008860EACF8111B4C010912A0368
:1057D0001F778091E3008078812B8093E300809194
:1057E000E800877F8093E8000E9481298091E8008B
:1057F00080FFFCCF8091E30080688093E30082E02B
:10580000111183E08093270395C08058823008F0FF
:1058100091C080912A0390912B038C3D23E0920745
:10582000A1F583E08A838AE289834FB7F894DE0189
:10583000139620E03EE051E2E32FF0E05093570052
:10584000E49120FF03C0E295EF703F5FEF708E2F71
:1058500090E0EA30C0F0C7968D939D932F5F24317E
:1058600059F74FBF8091E800877F8093E8006AE294
:1058700070E0CE0101960E9490288091E8008B771D
:105880008093E80057C0C096E7CF60912C037091D9
:105890002D03AE014F5F5F4F0E947D27BC01892B16
:1058A00009F448C09091E800977F9093E8008981BF
:1058B0009A810E94EE28E1CF8038E1F58091E800DE
:1058C000877F8093E800809123038093F10045CF88
:1058D000811130C090912A03923060F58091E800E8
:1058E000877F8093E800909323030E948129809111
:1058F0002303882311F084E005C08091E30087FD35
:10590000FACF81E0809327030E942D2613C0809157
:105910002A03813079F481E0933009F080E08093AC
:1059200025031092E9008091E800877F8093E800CA
:105930000E9481298091E80083FF0AC08091E800DD
:10594000877F8093E8008091EB0080628093EB007A
:10595000AA96E3E00C941F2D0895CF93809127031E
:105960008823A1F0C091E900CF709091EC00892FBD
:10597000817090FD80E8C82B1092E9008091E800CA
:1059800083FD0E94652BCF70C093E900CF910895ED
:105990000E94D1291092270308958091E300881F67
:1059A0008827881F089597FB072E16F4009407D0C8
:1059B00077FD09D00E942B2D07FC05D03EF4909571
:1059C00081959F4F0895709561957F4F0895EE0FD3
:1059D000FF1F0590F491E02D099469279627692708
:1059E00078278727782708952F923F924F925F92CA
:1059F0006F927F928F929F92AF92BF92CF92DF92DF
:105A0000EF92FF920F931F93CF93DF93CDB7DEB743
:105A1000CA1BDB0B0FB6F894DEBF0FBECDBF0994D7
:105A20002A88398848885F846E847D848C849B842E
:105A3000AA84B984C884DF80EE80FD800C811B813C
:105A4000AA81B981CE0FD11D0FB6F894DEBF0FBE6B
:105A5000CDBFED010895AA1BBB1B51E107C0AA1FD2
:105A6000BB1FA617B70710F0A61BB70B881F991FFF
:105A70005A95A9F780959095BC01CD010895FB0139
:105A8000DC0104C08D910190801921F441505040F7
:105A9000C8F7881B990B0895FB01DC0102C0019037
:105AA0000D9241505040D8F70895F999FECF92BD1C
:105AB00081BDF89A992780B50895A8E1B0E042E049
:105AC00050E00C94992DDC01A40FB51F41505040BB
:105AD00048F0CB01840F951F2E910E94742D4150E8
